S015000056524F4F4D5F776F726B696E672E737265631C
S1130000F6C0000014C1000012C1000010C10000BD
S11300100EC100000CC100000AC10000C7C50000E9
S113002005C6000004C1000002C1000000C10000B8
S1130030FEC00000FCC00000FAC00000F8C00000D0
S1130040F6C000000C944008F2C00000F0C00000AC
S1130050EEC00000ECC00000EAC00000E8C00000F0
S1130060A6C10000D4C20000A4C20000E0C0000089
S1130070DEC00000DCC00000DAC00000D8C0000010
S1130080D6C00000D4C00000D2C00000D0C0000020
S11300901BC30000EBC20000CAC00000C8C00000BF
S11300A0C6C00000C4C00000C2C00000C0C0000040
S11300B0BEC00000BCC00000BAC00000B8C0000050
S11300C0B6C00000B4C00000B2C00000B0C0000060
S11300D0AEC00000ACC00000AAC00000A8C0000070
S11300E0A6C00000170729072F073807410745074F
S11300F04A074F0700407A10F35A00A0724E1809BD
S11301000010A5D4E80000E87648170000E40B547A
S1130110020000CA9A3B000000E1F5050000809649
S11301209800000040420F000000A086010000007B
S1130130102700000000E803000000006400000035
S113014000000A00000000000100000000002C76FE
S1130150D888DC674F0823DFC1DFAE59E1B1B79619
S1130160E5E3E453C63AE651997696E8E6C2842676
S1130170EB898C9B62ED407C6FFCEFBC9C9F40F252
S1130180BAA56FA5F490055A2AF75C936B6CF967CE
S11301906DC11BFCE0E40D47FEF520E6B500D0ED93
S11301A0902E0300943577050080841E08000020FB
S11301B04E0A000000C80C333333330F986E128399
S11301C01141EF8D2114893BE65516CFFEE6DB186D
S11301D0D1844B381BF77C1D901DA4BBE424203232
S11301E084725E228100C9F124ECA1E53D2711242B
S11301F01FBECFEFD1E2DEBFCDBF00E00CBF12E0E7
S1130200A0E0B2E0EEE9FEE100E00BBF02C007901F
S11302100D92AC31B107D9F723E0ACE1B2E001C0F3
S11302201D92A335B207E1F7CFD30C944D0FE8CE5E
S113023090912102911104C091E0811190E0892FE5
S113024081110FC045B121E030E0C90100902202C4
S113025002C0880F991F0A94E2F78095842385B918
S1130260089545B121E030E0C9010090220202C0A6
S1130270880F991F0A94E2F7842B85B90895EF92A9
S1130280FF920F93CF93C0919302C03190F497E003
S1130290C902F0011124ED5DFD4F80836183428327
S11302A023830483F682E58281E08C0F809393029A
S11302B001C0CFEF209322020093210284B1282BA6
S11302C024B980E0B5DF8C2FCF910F91FF90EF9090
S11302D00895CF9390912002992321F090910002E8
S11302E0891358C070931F0260931E0240931D022D
S11302F010921C02CFB7F894909100029817A9F1BC
S11303008093000267E08602F0011124ED5DFD4F49
S11303104FB7F89484B1876084B923981CBC938147
S11303209093220284818093210254B121E030E031
S1130330B90102C0660F771F9A95E2F7CB01852BAE
S113034084B98281833020F48DB581608DBD03C072
S11303508DB58E7F8DBD9CB58181892B8065908103
S1130360892B9281892B8CBD4FBF81E08093200221
S11303705FDF8CB580688CBDE0911E02F0911F0296
S113038080818EBD80911C028F5F80931C02CFBF41
S113039081E001C08FEFCF9108958CB58F778CBD2C
S11303A080E046DF10921D021092200208951F92F1
S11303B00F920FB60F9211240BB60F922F933F9307
S11303C04F935F936F937F938F939F93AF93BF9359
S11303D0CF93DF93EF93FF93C0911E02D0911F023E
S11303E020911C02822F90E03EB5FE01E80FF91F18
S11303F03197308330911D02231750F4C80FD91F51
S113040088818EBD80911C028F5F80931C0210C076
S1130410C4DFE091000287E0E802F0011124ED5D01
S1130420FD4F0580F681E02D309711F0CE0119952E
S1130430FF91EF91DF91CF91BF91AF919F918F91F8
S11304407F916F915F914F913F912F910F900BBED0
S11304500F900FBE0F901F901895CF92DF92EF92DE
S11304600F931F93CF93DF93D22FCE2D1FB7F89402
S1130470882319F0813051F150C0440F551F661F75
S1130480771F440F551F661F771F9A01AB01220F78
S1130490331F441F551F220F331F441F551F60EA8B
S11304A07CE489EA90E09AD7CA01B90161507109E4
S11304B081099109A2D620E030E040E05FE308D64C
S11304C070D67093C5006093C40027C0440F551FB5
S11304D0661F771F440F551F661F771F9A01AB01D4
S11304E0220F331F441F551F60EA7CE489EA90E021
S11304F075D7CA01B90161507109810991097DD685
S113050020E030E040E05FE3E3D54BD67093C500D4
S11305106093C40082E08093C000C23041F018F4BC
S1130520C13049F002C0C53020F080E005C084E04D
S113053003C086E001C082E0E1ECF0E0108290812B
S1130540C114D10411F038E901C038E1C43011F408
S113055024E001C020E0932B922B9093C100E2ECA5
S1130560F0E010829081092BD02B8D2B8083D092C8
S11305701B03C0921A031FBFDF91CF911F910F91EC
S1130580EF90DF90CF9008952091D9022F5F2F73C1
S11305909091D8022917E1F3E22FF0E0E652FD4FE3
S11305A080832093D902E1ECF0E080818062808333
S11305B008951F920F920FB60F9211240BB60F924B
S11305C08F939F93EF93FF939091D9028091D802D8
S11305D0981769F0E091D802EF5FEF73E093D802C7
S11305E0F0E0E652FD4F80818093C60005C0E1EC47
S11305F0F0E080818F7D8083FF91EF919F918F91B7
S11306000F900BBE0F900FBE0F901F9018951F9266
S11306100F920FB60F9211240BB60F922F933F93A4
S11306204F935F936F937F938F939F93AF93BF93F6
S1130630EF93FF938091C600E0911A03F0911B039E
S1130640309709F01995FF91EF91BF91AF919F9168
S11306508F917F916F915F914F913F912F910F9067
S11306600BBE0F900FBE0F901F9018951F920F9204
S11306700FB60F9211240BB60F928F939F93EF93A3
S1130680FF939091950280919402981769F0E091FC
S11306909402EF5FEF73E0939402F0E0EA56FD4FAB
S11306A080818093CE0005C0E9ECF0E080818F7DED
S11306B08083FF91EF919F918F910F900BBE0F90CC
S11306C00FBE0F901F9018951F920F920FB60F92A6
S11306D011240BB60F922F933F934F935F936F9315
S11306E07F938F939F93AF93BF93EF93FF938091E7
S11306F0CE00E091D602F091D702309709F0199517
S1130700FF91EF91BF91AF919F918F917F916F91E5
S11307105F914F913F912F910F900BBE0F900FBEA1
S11307200F901F901895E7E0F1E08081807F80832F
S1130730808180638083E8E0F1E080818F60808342
S113074080818F7E808380818F7D80830895409116
S1130750060121E030E0B90102C0660F771F8A95D7
S1130760E2F750E09B012423352381E0232B09F495
S113077080E008959CEF980F923000F5613079F491
S1130780E8E0F1E0408121E030E0B90102C0660F09
S1130790771F8A95E2F7CB01842B80830895E8E0E4
S11307A0F1E0408121E030E0B90102C0660F771F1B
S11307B08A95E2F7CB018095842380830895E8E04D
S11307C0F1E0408121E030E0B90102C0660F771FFB
S11307D08A95E2F7CB01842780830895EBE0F1E06A
S11307E080818064808300C080818F7B80830895B2
S11307F00F931F93CF93DF93082F662331F0EBE021
S1130800F1E080818061808305C0EBE0F1E08081CC
S11308108F7E8083CBE0D1E088818F7D8883EAE07E
S1130820F1E080818F6080831881107F802F829512
S11308308F70812B8883D2DF0F70012B0883CEDF6A
S11308401F601883DF91CF911F910F910895882322
S113085031F0EBE0F1E080818061808305C0EBE062
S1130860F1E080818F7E8083EBE0F1E08081806223
S11308708083AAE0B1E08C91807F8C938081806436
S1130880808300C09091090180818F7B808300C0A8
S113089080818064808300C0809109019295907F5B
S11308A08F7020812F7B2083892B089580E0CFDFF8
S11308B08823E4F385E090E00197F1F780E0C7CF67
S11308C00895CF93C82FF2DF60E08C2F91DFCF9192
S11308D00895611103C08058F4CF08958054F1CF76
S11308E0089581E0EECF0895CF93C82FDFDFCA309B
S11308F041F4803410F480E401C080E08058E1DFEA
S113090003C061E08C2F74DFCF910895CF93DF9300
S1130910EC012196FC018081882321F0E5DF899197
S11309208111FCCFDF91CF910895CF93C82FEAE0D6
S1130930F1E080818F678083E0E5FDEA3197F1F78C
S1130940EBE0F1E08081826080838081816080833C
S113095045DFE2E1F6E33197F1F740DFE1EBF0E068
S11309603197F1F73BDFE1EBF0E03197F1F7EBE0A2
S1130970F1E080818E7F808331DFE1EBF0E031971D
S1130980F1F788E29EDF88E09CDFABDF86E099DF49
S11309908C2F97DFCF91089584B1806E84B985B18F
S11309A0806E85B9089595B1892785B90895E09138
S11309B01E0391E09E0F90931E03EF70F0E0E15E42
S11309C0FC4F8083E1CD0895CF93DF93CDB7DEB79D
S11309D02A970FB6F894DEBF0FBECDBF0F2EF7EDEA
S11309E0CF2EF4E0DF2EF02D0F2EF3E0EF2EF02DBE
S11309F000E020E040E052EC61E070E081E02DDDB9
S1130A008CE093DF90DE61E085E0B4DEC5DF50D298
S1130A1078940F2EF3E08F2EF2E09F2EF02D9E019E
S1130A202F5F3F4F59011FB7F894B0D26B017C017F
S1130A30C2D120E030E04AE754E46DD4ADD3562E61
S1130A40472EC8D120E030E04AE754E464D4A4D36C
S1130A50762E672ECED120E030E04AE754E45BD412
S1130A609BD3362E272E1FBF3CDF60E080E031DFB2
S1130A704F925F929F928F92BF92AF92F7D4C5012B
S1130A8045DF60E088E025DF6F927F92AAE0B2E064
S1130A90BF93AF93BF92AF92E9D4C50137DF81E032
S1130AA056DE0FB6F894DEBF0FBECDBF81110CC069
S1130AB090911C0381E0892780931C0380E873DFF5
S1130AC081E045DE8823E1F380911C03882339F01B
S1130AD061E080E0FEDE8FE193E018DF22C061E098
S1130AE080E0F7DE2F923F92A1E1B2E0BF93AF9393
S1130AF0BF92AF92BBD4C50109DF61E088E0E9DEB3
S1130B00850122E042E0C701B60190D4FFDE8FEDFB
S1130B10EBDE83E4E9DE0F900F900F900F900F90BF
S1130B200F9080E014DE81110EC090911D0381E0CE
S1130B30892780931D0385E042DE84E040DE80E067
S1130B4006DE8823E1F380911D03882349F185EDB6
S1130B509AE00197F1F700C00000842D15DD852D82
S1130B6013DDA5EDBAE01197F1F700C00000862D62
S1130B700BDD872D09DD85ED9AE00197F1F700C0C3
S1130B800000822D01DD832DFFDCA5EDBAE0119775
S1130B90F1F700C000008FE7F7DC8FEFF5DC43CFFF
S1130BA081E890E20197F1F700003DCF1F920F9288
S1130BB00FB60F9211240BB60F922F938F939F931E
S1130BC0EF93FF93ECB1E295E695E695E370F0E0E0
S1130BD0E85EFD4F208180913103922F981B913064
S1130BE011F09F3F54F480912F03909130030197AB
S1130BF09093300380932F030BC0992349F0809185
S1130C002F039091300301969093300380932F0328
S1130C1020933103FF91EF919F918F912F910F902A
S1130C200BBE0F900FBE0F901F9018951F920F923E
S1130C300FB60F9211240BB60F922F938F939F939D
S1130C40EF93FF93ECB1E295E695E695E370F0E05F
S1130C50E85EFD4F208180913103922F981B9130E3
S1130C6011F09F3F54F480912F039091300301972A
S1130C709093300380932F030BC0992349F0809104
S1130C802F039091300301969093300380932F03A8
S1130C9020933103FF91EF919F918F912F910F90AA
S1130CA00BBE0F900FBE0F901F901895209132032A
S1130CB0222319F0213031F02BC081E080933203DC
S1130CC0A7C008954FB7F894FC01228130E0322F79
S1130CD022275181252B30934503209344032481FB
S1130CE030E0322F22275381252B30934303209366
S1130CF04203268130E0322F22278581B901682BF7
S1130D00CB0190934103809340034FBF81C008956A
S1130D10109232030895DF92EF92FF920F931F9384
S1130D20CF93DF93D62F142FC22FDFB6F8940F2E54
S1130D30F6E5EF2EF6E0FF2EF02D00E0282F43E03D
S1130D4060E08CE09CDA80930102DFBE10923C03E9
S1130D5010923E0310923F0380E680933A0317609B
S1130D60D12BD0933B03C0933D0346E06AE373E089
S1130D7080910102AEDA10923203DF91CF911F917C
S1130D800F91FF90EF90DF90089588EE80933303E6
S1130D9010923403109235031092360310923703E5
S1130DA0109238031092390347E063E373E08091B3
S1130DB001028FCA08956091440370914503882706
S1130DC077FD8095982F1BD227E032E442E359E364
S1130DD0A2C208956091420370914303882777FD6E
S1130DE08095982F0CD227E032E442E359E393C272
S1130DF008956091400370914103882777FD8095A1
S1130E00982FFDD127E032E442E359E384C20895E8
S1130E10CF92DF92EF920F938091460390E0883057
S1130E20910508F040C0FC01EE58FF4FF9C281E083
S1130E3080934603C12CD12C0F2EF3E0EF2EF02D1E
S1130E4000E020E040E052EC61E070E006DBE0DF2F
S1130E502AC082E08093460384E04DD024C083E01E
S1130E608093460320E340E160E280E054DF1BC04E
S1130E7085E08093460364EF71E088E090E09CD0C5
S1130E8012C085E0809346030EC086E0809346033B
S1130E9083D009C087E08093460377DF04C084E0F1
S1130EA080934603B5DF0F91EF90DF90CF900895C4
S1130EB081E080934603ACCF089520914703222319
S1130EC019F0213031F014C081E080934703A0CFA2
S1130ED008952FB7F894FC01318130935103328186
S1130EE0309352038381809350032FBF91CF089591
S1130EF0109247030895EF92FF920F93CF9390E8D7
S1130F009093480310924903CFB7F8940F2EFDE550
S1130F10EF2EF7E0FF2EF02D01E0282F43E060E0F4
S1130F2084E0ADD980930202CFBF42E068E473E06D
S1130F3080910202CED910924703CF910F91FF9076
S1130F40EF90089524E0829FC00111246295669574
S1130F5066956370862B91FD05C090934F03809333
S1130F604E0305C09E6F90934F0380934E03609190
S1130F704E0370914F03882777FD8095982F3FD1BA
S1130F8020E030E040E85EE3C6C10895609152037A
S1130F9080915103D7CF089582E080934A03109241
S1130FA04B0310924C0310924D0344E06AE473E047
S1130FB0809102028EC908951F93CF93DF93EC01B1
S1130FC01FB7F894869F9001879F300D969F300D30
S1130FD0112440E050E060EA7CE489EA90E0FED12C
S1130FE0215031093093890020938800E1E8F0E032
S1130FF0808188608083C034D10509F130F4C13028
S1131000D10559F0289791F031C0C11581E0D80776
S1131010F9F0C115D44029F129C0E1E8F0E080815C
S1131020897F808380818160808320C0E1E8F0E053
S113103080818A7F808380818260808317C0E1E819
S1131040F0E080818B7F80838081836080830EC009
S1131050E1E8F0E080818C7F8083808184608083FC
S113106005C0E1E8F0E0808187608083EFE6F0E08E
S11310708081826080831FBFDF91CF911F9108958B
S11310801F920F920FB60F9211240BB60F922F934B
S11310903F934F935F936F937F938F939F93AF93FC
S11310A0BF93EF93FF93B4DEFF91EF91BF91AF91A4
S11310B09F918F917F916F915F914F913F912F916C
S11310C00F900BBE0F900FBE0F901F9018955058A5
S11310D0BB27AA270ED0E5C0D6D030F0DBD020F055
S11310E031F49F3F11F41EF4CBC00EF4E095E7FBFE
S11310F0C1C0E92FE7D080F3BA17620773078407EA
S1131100950718F071F49EF5FFC00EF4E0950B2ED0
S1131110BA2FA02D0B01B90190010C01CA01A00145
S11311201124FF27591B99F0593F50F4503E68F1A0
S11311301A16F040A22F232F342F4427585FF3CFE1
S1131140469537952795A795F0405395C9F77EF4B2
S11311501F16BA0B620B730B840BBAF09150A1F0FB
S1131160FF0FBB1F661F771F881FC2F70EC0BA0F81
S1131170621F731F841F48F4879577956795B79509
S1131180F7959E3F08F0B3CF9395880F08F0992701
S1131190EE0F97958795089504D06894B111B5C062
S11311A0089598D088F09F5790F0B92F9927B75198
S11311B0A0F0D1F0660F771F881F991F1AF0BA9517
S11311C0C9F712C0B13081F09FD0B1E008959CC03E
S11311D0672F782F8827B85F39F0B93FCCF386950D
S11311E077956795B395D9F73EF49095809570956A
S11311F061957F4F8F4F9F4F0895E89409C097FBE7
S11312003EF490958095709561957F4F8F4F9F4FD9
S11312109923A9F0F92F96E9BB279395F69587951D
S113122077956795B795F111F8CFFAF4BB0F11F4E0
S113123060FF1BC06F5F7F4F8F4F9F4F16C0882387
S113124011F096E911C0772321F09EE8872F762FBD
S113125005C0662371F096E8862F70E060E02AF0FE
S11312609A95660F771F881FDAF7880F96958795EA
S113127097F9089597F99F6780E870E060E0089512
S11312809FEF80EC089500240A941616170618069A
S11312900906089500240A94121613061406050676
S11312A00895092E0394000C11F4882352F0BB0F07
S11312B040F4BF2B11F460FF04C06F5F7F4F8F4F6A
S11312C09F4F089557FD9058440F551F59F05F3FA5
S11312D071F04795880F97FB991F61F09F3F79F054
S11312E087950895121613061406551FF2CF4695D6
S11312F0F1DF08C0161617061806991FF1CF869558
S11313007105610508940895E894BB27662777273B
S1131310CB0197F908950BD0C4CFB5DF28F0BADF1D
S113132018F0952309F0A6CFABCF1124EECFCADF76
S1131330A0F3959FD1F3950F50E0551F629FF001E4
S1131340729FBB27F00DB11D639FAA27F00DB11D3D
S1131350AA1F649F6627B00DA11D661F829F2227C6
S1131360B00DA11D621F739FB00DA11D621F839F4D
S1131370A00D611D221F749F3327A00D611D231F23
S1131380849F600D211D822F762F6A2F11249F5771
S113139050408AF0E1F088234AF0EE0FFF1FBB1F94
S11313A0661F771F881F91505040A9F79E3F510533
S11313B070F060CFAACF5F3FECF3983EDCF38695E4
S11313C077956795B795F795E7959F5FC1F7FE2BDE
S11313D0880F911D9695879597F90895A1E21A2E85
S11313E0AA1BBB1BFD010DC0AA1FBB1FEE1FFF1FC5
S11313F0A217B307E407F50720F0A21BB30BE40B15
S1131400F50B661F771F881F991F1A9469F760955B
S11314107095809590959B01AC01BD01CF01089515
S1131420EE0FFF1F0590F491E02D1994EF920F93A6
S11314301F93CF93DF93E80147FF02C034E101C05B
S113144034E0E42FFF27E7FDF095F7FF03C0F195A3
S1131450E195F109E32E022F2E2FAE0123D2CE0106
S1131460DF91CF911F910F91EF9008950F931F93E8
S1131470CF93DF93CDB7DEB72E970FB6F894DEBFC8
S11314800FBECDBF0E891F8986E08C831A83098322
S11314908FEF9FE79E838D83AE01465E5F4F688D1D
S11314A0798DCE01019610D0EF81F885E00FF11F00
S11314B010822E960FB6F894DEBF0FBECDBFDF911B
S11314C0CF911F910F9108952F923F924F925F9267
S11314D06F927F928F929F92AF92BF92CF92DF9240
S11314E0EF92FF920F931F93CF93DF93CDB7DEB7A5
S11314F02C970FB6F894DEBF0FBECDBF7C016B01F5
S11315008A01FC0117821682838181FFB0C1CE015A
S113151001964C01F7019381F60193FD859193FFA8
S113152081916F01882309F49EC1853239F493FDBA
S1131530859193FF81916F01853221F4B70190E089
S11315401CD4E8CF512C312C20E02032A0F48B3273
S113155069F030F4803259F0833269F420612CC090
S11315608D3239F0803339F4216026C02260246042
S113157023C0286021C027FD27C030ED380F3A3042
S113158078F426FF06C0FAE05F9E300D1124532E36
S113159013C08AE0389E300D1124332E20620CC013
S11315A08E3221F426FD5FC1206406C08C3611F40E
S11315B0206802C0883641F4F60193FD859193FFBB
S11315C081916F018111C1CF982F9F7D95549330E4
S11315D028F40C5F1F4FFFE3F9830DC0833631F00D
S11315E0833771F0833509F057C021C0F801808139
S11315F089830E5F1F4F44244394512C540114C01B
S11316003801F2E06F0E711CF801A080B18026FF52
S113161003C0652D70E002C06FEF7FEFC5012C871A
S1131620A1D32C0183012C852F77222E16C03801DB
S1131630F2E06F0E711CF801A080B18026FF03C098
S1131640652D70E002C06FEF7FEFC5012C877FD35B
S11316502C012C852068222E830123FC19C0832DA4
S113166090E048165906A0F4B70180E290E085D3D3
S11316703A94F5CFF50127FC859127FE81915F010E
S1131680B70190E07AD331103A94F1E04F1A51083F
S11316904114510479F7DEC0843611F0893631F5EE
S11316A0F80127FF07C060817181828193810C5FFB
S11316B01F4F08C060817181882777FD8095982F1E
S11316C00E5F1F4F2F76B22E97FF09C0909580951D
S11316D0709561957F4F8F4F9F4F2068B22E2AE0FF
S11316E030E0A4017CD3A82EA81843C0853729F480
S11316F02F7EB22E2AE030E025C0F22FF97FBF2ED4
S11317008F36C1F018F4883579F0ADC0803719F000
S1131710883721F0A8C02F2F2061B22EB4FE0DC04F
S11317208B2D8460B82E09C024FF0AC09F2F9660B9
S1131730B92E06C028E030E005C020E130E002C048
S113174020E132E0F801B7FE07C060817181828137
S113175093810C5F1F4F06C06081718180E090E02F
S11317600E5F1F4FA4013BD3A82EA818FB2DFF77B3
S1131770BF2EB6FE0BC02B2D2E7FA51450F4B4FE45
S11317800AC0B2FC08C02B2D2E7E05C07A2C2B2D4E
S113179003C07A2C01C0752C24FF0DC0FE01EA0D94
S11317A0F11D8081803311F4297E09C022FF06C017
S11317B07394739404C0822F867809F0739423FD84
S11317C012C020FF06C05A2C731418F4530C571877
S11317D0732C731460F4B70180E290E02C87CDD2AF
S11317E073942C85F6CF731410F4371801C0312C80
S11317F024FF11C0B70180E390E02C87BED22C8572
S113180022FF16C021FF03C088E590E002C088E7EC
S113181090E0B7010CC0822F867851F021FD02C000
S113182080E201C08BE227FD8DE2B70190E0A5D2F2
S1131830A51430F4B70180E390E09FD25A94F8CF16
S1131840AA94F401EA0DF11D8081B70190E095D2CC
S1131850A110F6CF332009F45DCEB70180E290E009
S11318608CD23A94F7CFF7018681978102C08FEF2B
S11318709FEF2C960FB6F894DEBF0FBECDBFDF915D
S1131880CF911F910F91FF90EF90DF90CF90BF9079
S1131890AF909F908F907F906F905F904F903F900C
S11318A02F9008956F927F929F92AF92BF92CF92A2
S11318B0DF92EF92FF920F931F93CF93DF93CDB7F5
S11318C0DEB729970FB6F894DEBF0FBECDBF6A010D
S11318D0B22E102F0C3320F4FF24F394F00E02C028
S11318E04CE3F42E0F2D27E0AE014F5F5F4F57D12D
S11318F07981272F2970213031F0E1FC06C0E0FC0A
S113190006C060E005C06DE203C06BE201C060E2A6
S1131910AE2DA07173FF36C0662311F084E001C0C0
S113192083E08B1510F4B81A01C0B12CA1110BC0BF
S1131930F6018B2D90E2882319F091938150FBCF0F
S1131940CB0CD11CB12C662331F0F60160839601D7
S11319502F5F3F4F6901C6010396E2FE05C02EE4E6
S1131960F601208331E404C02EE6F601208331E63B
S113197031832283FC012B2D30E22223F1F13193B8
S11319802150FBCF72FF40C0662311F084E001C0F8
S113199083E08B1510F4B81A01C0B12CA1110BC04F
S11319A0F6018B2D90E2882319F091938150FBCF9F
S11319B0CB0CD11CB12C662331F0F6016083960167
S11319C02F5F3F4F6901C6010396E2FE07C029E479
S11319D0F60120832EE4218326E406C029E6F601DD
S11319E020832EE6218326E62283FC012B2D30E280
S11319F0222319F031932150FBCFFC01EB0DF11D93
S1131A0010828EEF9FEFB7C0B1E0611101C0B0E06A
S1131A104B2F50E01816190624F49C012F5F3F4FFA
S1131A2002C021E030E0240F351F112329F0412F9B
S1131A3050E04F5F5F4F02C040E050E0420F531F41
S1131A402B2D30E04217530714F4B41A01C0B12C03
S1131A502E2D287159F4F6012B2D30E2222319F092
S1131A6031932150FBCFCB0CD11CB12CBB2331F0D3
S1131A70F601608396012F5F3F4F6901A1110BC0EE
S1131A80F6012B2D30E3222319F031932150FBCFA3
S1131A90CB0CD11CB12CF80E0A81372F3071A32E38
S1131AA074FF03C0013309F4FA941F142CF42F2D8E
S1131AB0293018F028E001C021E0682F392F97FF62
S1131AC002C060E030E0462F532F612C712C3EE2BF
S1131AD0932EBC01621B71099B01DC01A41BB50B95
S1131AE0E1E0F0E0EC0FFD1FAE0FBF1FE12EF12C83
S1131AF0F194E194F1084F3FFFEF5F0731F4F601F1
S1131B009082B6016F5F7F4F6B01841795074CF08D
S1131B102417350734F4BD01660D771DFB011181CF
S1131B2001C010E341505109FFEF6F1A7F0AB6015B
S1131B306F5F7F4F4E155F0524F0F60110836B0134
S1131B40DACF4817590739F4063320F4053319F46A
S1131B50A11001C011E3F6011083FB018B2D90E26B
S1131B60882319F091938150FBCFFB01EB0DF11DFC
S1131B70108280E090E029960FB6F894DEBF0FBE85
S1131B80CDBFDF91CF911F910F91FF90EF90DF9028
S1131B90CF90BF90AF909F907F906F900895283022
S1131BA008F027E03327DA01990F311D87FD916092
S1131BB000966105710539F432602E5F3D9330E380
S1131BC02A95E1F708959F3F30F08038710561054B
S1131BD009F03C5F3C5F3D93913008F08068911DB3
S1131BE0DF93CF931F930F93FF92EF92192F987F58
S1131BF09695E92F96959695E90FFF27E25BFE4FA0
S1131C0099273327EE24FF24A701E70105900894C0
S1131C10079428F4360FE71EF81E491F511D660F5E
S1131C20771F881F991F0694A1F70590079428F43D
S1131C30E70EF81E491F561FC11D770F881F991FF5
S1131C40661F0694A1F70590079428F4F80E491F1F
S1131C50561FC71FD11D880F991F661F771F069433
S1131C60A1F70590079420F4490F561FC71FD81FEA
S1131C70990F661F771F881F0694A9F78491109502
S1131C80177041F0D695C79557954795F794E79403
S1131C901A95C1F7E4EFF0E0689415901591359129
S1131CA06591959105907FE27395E118F10A430BD4
S1131CB0560BC90BD009C0F7E10CF11E431F561F88
S1131CC0C91FD01D7EF4703311F48A95E6CFE894D1
S1131CD0015030F0080F0AF40027021708F4202FEF
S1131CE02395022F7A3328F079E37D932A95E9F737
S1131CF010C07D932A9589F6069497956795379534
S1131D0017951794E118F10A430B560BC90BD00928
S1131D1098F023957E9173957A3308F070E37C9361
S1131D202013B8F77E9170617D9330F0839571E351
S1131D307D9370E32A95E1F71124EF90FF900F91C2
S1131D401F91CF91DF91992787FD90950895FC010C
S1131D500590615070400110D8F7809590958E0FD2
S1131D609F1F0895FC016150704001900110D8F745
S1131D70809590958E0F9F1F08950F931F93CF9377
S1131D80DF93182F092FEB018B8181FD03C08FEFA7
S1131D909FEF20C082FF10C04E815F812C813D8166
S1131DA0421753077CF4E881F9819F012F5F3F4F6D
S1131DB039832883108306C0E885F985812F199516
S1131DC0892B29F72E813F812F5F3F4F3F832E833D
S1131DD0812F902FDF91CF911F910F910895FA01D8
S1131DE0AA27283051F1203181F1E8946F936E7F56
S1131DF06E5F7F4F8F4F9F4FAF4FB1E03ED0B4E047
S1131E003CD0670F781F891F9A1FA11D680F791F87
S1131E108A1F911DA11D6A0F711D811D911DA11D98
S1131E2020D009F468943F912AE0269F11243019A8
S1131E30305D3193DEF6CF010895462F4770405D43
S1131E404193B3E00FD0C9F7F6CF462F4F70405DF2
S1131E504A3318F0495D31FD4052419302D0A9F74D
S1131E60EACFB4E0A6959795879577956795BA9547
S1131E70C9F700976105710508959B01AC010A2E0D
S1131E8006945795479537952795BA95C9F7620FE4
S1111E90731F841F951FA01D0895F894FFCFA3
S1131E9EFFFFFF7820253035640079202530356426
S10F1EAE007A2025303564000001030296
S9030000FC
